:020000041000EA
:10000000002008205D0100101B0100101D010010E0
:100010001101001011010010110100101101001058
:100020001901001019010010190100101F01001022
:10003000110100101901001021010010230100100E
:100040001101001011010010110100101101001028
:100050001101001011010010110100101101001018
:100060001101001011010010110100101101001008
:1000700011010010110100101101001011010010F8
:1000800011010010110100101101001011010010E8
:1000900011010010110100101101001011010010D8
:1000A00011010010110100101101001011010010C8
:1000B00011010010110100101101001011010010B8
:1000C00011010010110100101101001011010010A8
:1000D0001101001011010010110100101101001098
:1000E0001101001011010010110100101101001088
:1000F0001101001011010010110100101101001078
:100100001101001011010010110100101101001067
:10011000EFF30580103800BE00BE00BE00BE00BE7A
:1001200000BE00BEF2EB8871C0EC0310DCEC0310E3
:10013000A001001090A31AE7D3DEFFFF42012110B7
:10014000FF01000084F20300793512AB4FF000008C
:100150001E49086006C881F3088810474FF05040D8
:10016000006810B14FF00000F2E70DA40ECC00299A
:1001700002D000F012F8F9E71549164A002000E015
:1001800001C19142FCD11449884714498847144958
:10019000884700BEFDE701C901C29A42FBD3704700
:1001A000DCEC031010010020F0070020BCF303106A
:1001B0000000082000000820BCF3031000100820F5
:1001C00000100820000000007047000008ED00E06B
:1001D000F007002020150020B1310010750200103A
:1001E000A9310010F8B500BF0348044B834202D088
:1001F000034B03B118477047F0070020F0070020B9
:1002000000000000064B0749C91A891048BF013198
:10021000491003D0044B0BB101481847704700BF89
:10022000F0070020F00700200000000010B5064C89
:10023000237843B9FFF7D8FF044B13B10448AFF359
:1002400000800123237010BDB809002000000000C9
:10025000A472001008B5044B1BB104490448AFF365
:100260000080BDE80840CDE700000000BC09002088
:10027000A472001008B503F095F970B901210020AF
:1002800003F082F9FA2001F08BF80021084603F010
:100290007BF9FA2001F084F8F0E701F029FAEDE7A4
:1002A00010B44FF480740C4B53F8202003EB800300
:1002B000C00082F0400200F1804003F5805C02F053
:1002C000C00200F5203003F54053CCF80020416017
:1002D0001C605DF8044B70470480034010B4084C68
:1002E000C90041EA820154F8202004EB8003514008
:1002F00003F5805301F00C015DF8044B1960704761
:1003000004800340064B022203EB800319B103F57E
:1003100000531A60704703F540531A60704700BFDE
:100320000480034070B44FF050460F4B36680F4DB9
:1003300000F0070C002E18BF2B46C0080C4C4FEAEB
:100340008C0C01FA0CF103EB80038C3044F8201084
:1003500022B170BC03F500531960704703F5405398
:10036000196070BC704700BF488202409082024012
:10037000008002402DE9F0414FF050480D4FD8F871
:100380000030164657F82320044602420D4609D194
:1003900014432946324647F823401520BDE8F04172
:1003A00000F0A8B901F0A4F9D8F8003057F82320DC
:1003B000EEE700BF0415002010B50446152000F03C
:1003C0008DFA4FF05043044A196852F8213023EA5D
:1003D000040342F8213010BD0415002030B44FF062
:1003E000000343EC440043EC400005254FF48074C7
:1003F0000B4BC20053F8201003EB800081F040014A
:1004000002F1804303F5203301F0C00200F5805172
:1004100000F540500A605D60046030BC704700BF6A
:10042000048003400FB400B583B0049C074803F078
:1004300015F83CB105A92046019102F09BFE044845
:1004400003F00CF8012002F0ADFE00BFA87200100E
:10045000B8720010EFF3108072B6064BD3E8CF1FCE
:1004600001220029FAD1C3E8412F0029F6D1BFF3B8
:100470005F8F7047730B00200023034AC2E88F3F51
:1004800080F31088704700BF730B002070B586465C
:10049000EFF3108572B6124CD4E8CF6F0120002E16
:1004A000FAD1C4E8460F002EF6D1BFF35F8F4FF0AC
:1004B000010CC80801F007030CFA03F31EF800C092
:1004C0001CEA030608D14CEA030C0EF800C0C4E88D
:1004D0008F6F85F3108870BD1046FFF7A3FF00BF34
:1004E000730B0020F8B5EFF3108572B6234CD4E8F7
:1004F000CF7F0126002FFAD1C4E8476F002FF6D135
:10050000BFF35F8F9A4227D80126D70810F807E07B
:1005100002F0070C06FA0CFC1EEA0C0F00EBD207E7
:100520000DD125E04FEAD20E10F80EE002F0070CD4
:1005300006FA0CFC1EEA0C0F00EBD20718D00132B1
:100540009342EFD24FF0FF300023C4E88F3F85F392
:100550001088984207DBF8BD0023C4E88F3F85F37D
:1005600010884FF0FF300029F5D00698FFF75AFFAA
:100570004EEA0C0E104687F800E0E5E7730B00200A
:1005800000B5EFF3108E72B6104BD3E8CFCF012237
:10059000BCF1000FF9D1C3E84C2FBCF1000FF4D12E
:1005A000BFF35F8F01224FEAD10C01F0070102FA7D
:1005B00001F110F80C2022EA010200F80C200022C0
:1005C000C3E88F2F8EF310885DF804FB730B0020B7
:1005D000044A1078431CDBB2182B28BF1023137079
:1005E000704700BF580700204FF0E022936843F0A7
:1005F00000539360704700BF0021044B03F12002B9
:10060000C3E88F1F01339342FAD17047680B002073
:100610004FF0E0234FF08032C3F80024C3F80424E5
:10062000C3F80824C3F80C24C3F81024C3F8142416
:10063000C3F81824C3F81C24C3F82024C3F82424C6
:10064000C3F82824C3F82C24C3F8302462B67047BA
:10065000012300F01F029340400941B1800000F1E6
:10066000604000F56140C0F8803103607047024A85
:10067000203042F82030704700E100E001224309B9
:10068000034900F01F008240403341F823207047A7
:1006900000E100E0F8B50D46EFF3108772B6124E98
:1006A000D6E8CF2F0123002AFAD1C6E8423F002A1C
:1006B000F6D1BFF35F8F0D4B00F110049B680C4A1D
:1006C00053F82430934203D0994201D001F010F83E
:1006D000064B9B6843F82450BFF35F8F0023C6E8A6
:1006E0008F3F87F31088F8BD710B002000ED00E00C
:1006F000110100102DE9F04F81468B46164683B05C
:10070000EFF3108372B6DFF8D0A10093DAE8CF1FC1
:1007100001230029FAD1CAE8413F0029F6D1BFF3ED
:100720005F8F664B93F90040002CC0F2A080644DAF
:1007300004EB440705EB870898F8061009F1100947
:100740001970604BBF009B6853F829006300411B80
:100750002F292FD95C49884240F0A4801C445B4B70
:1007600002372F44043BDB1BC3F34A036FEAC34346
:100770004FF421416FEAD34325F8241005EB84049C
:1007800063804BF60153A380FF2348F00100E6711C
:10079000C4F808B0A3714B4B9B6843F82900BFF322
:1007A0005F8F0023CAE88F3F009B83F3108803B05C
:1007B000BDE8F08F20F0010E9EF80710B1422ED850
:1007C0004FF42143EB53414BB91C2944043B0437FC
:1007D0005B1A2F44AEF104013D4CC91BC1F34A0121
:1007E0002143A8F80410C3F34A033A492343A8F865
:1007F00002304AF6AA2073465B1B5B415843000D4A
:1008000088F8076088F80600C8F808B048F00100CA
:10081000CEF80010BFE7D179B1422ED996469EF9A5
:1008200006C00CEB4C02BCF1000F05EB8202F2DAC1
:100830004BF601510EF10402A8F10407BF1AC7F3E9
:100840004A076FEAC7476FEAD7478EF8064003EBBF
:100850000408204C05EB8803AEF8047045F82840E6
:10086000998083F806C0DE71C3F808B093E700F002
:100870003FFF124B93F9004059E7724632F8041FCC
:10088000490514D44915023102EB410101916FF081
:100890000701C91B019F491B3944C1F34A0141F4B7
:1008A0006041C9E7019300F023FF019B56E701F582
:1008B000FF1101F5FF511F31E4E700BF1C150020B7
:1008C0005C07002000ED00E0110100108C07002003
:1008D00000E0FFFF01488047710B00202DE9F04F39
:1008E00083B0EFF3108A72B6744ED6E8CF2F01238F
:1008F000002AFAD1C6E8423F002AF6D1BFF35F8F43
:100900006F4B00F110089B686E4A53F828509542CF
:100910003FD08D420C464AD06B4FEB1B2F2B38D863
:1009200001214FEA50194FEA890909F1604909F597
:10093000614900F01F0301FA03F0D9F80030C9F84B
:10094000800000EA030BBFF35F8FEFF30581C9B2AC
:1009500079B3884577D125F0010EDEF808C06445EB
:1009600005D17CE0D3F808C0644532D09E469EF99C
:10097000062002EB4203002A07EB8303F2DA644508
:1009800000F08180BBF1000F20D0C9F88001C9F8C8
:1009900000004B4B9B6843F82850BFF35F8F002348
:1009A000C6E88F3F8AF3108803B0BDE8F08F154684
:1009B000EFE725F0010EDEF808C06445D7D19EF9B7
:1009C00006407346002C08DA154666E0C9F8800038
:1009D000DFE793F90640002C56DB04EB440C07EBF1
:1009E0008C0CDCF8082061009A609CF80720DA7112
:1009F0009CF90620002A9A715DDBBCF804205205A0
:100A000004D502F5FF1202F5FF521F32521502F112
:100A1000020C4FF0040E0C2212FB04E202EB4C021B
:100A20006FF0070C3A44ACEB030C6244C2F34A0289
:100A300042F460429A80254B21441A7807EB8101E9
:100A40001C708A719EE7CDE9000100F051FEDDE9DE
:100A5000000125F0010EDEF808C0644587D19EF93B
:100A600006407346002CB8DA194A1A4CD21A083AD2
:100A7000C2F30A316FEA01516FEA115144EA52029E
:100A8000DA8099807EE773460029EDD1FF228EF847
:100A900006204BF60152AEF804200C4C4AF6AA226E
:100AA00094F800C01946C91B49414A43120D83F806
:100AB00006C0227066E74BF60152BBE7710B0020BF
:100AC00000ED00E0110100105C0700201C15002063
:100AD0009607002000F8FFFF4FF0FF0C20F0030303
:100AE00003F1604303F5644300F003001A68C0009B
:100AF0000CFA00FC22EA0C0281400A431A6070479B
:100B0000F0B5EFF30585EDB2EFF3108C72B6264920
:100B1000D1E8CF2F0123002AFAD1C1E8423F002AB1
:100B2000F6D1BFF35F8F214E40F0010EB4684AF654
:100B3000AA2354F825701E4A0446A41A644163434C
:100B40001B0D77455BB21BD092F906409C421CD02E
:100B500092F912409C4223D092F91E409C4221D02F
:100B600092F92A409C4208BF03240FD0114A002466
:100B7000157813708571C1E88F4F8CF31088F0BD24
:100B8000B2680D4C42F82540F0E7002404EB440421
:100B900002EB8402FF2494714BF601549480E5E744
:100BA0000124F3E70224F1E7710B002000ED00E0DF
:100BB0005C0700201C1500201101001001460248AE
:100BC000C1F13301FFF7DCBC1D15002010B5074C47
:100BD00082B001460523002200940548FFF782FCFD
:100BE0000028A8BFC0F1330002B010BDBC720010D5
:100BF0001D15002070B504460E461546FFF7E8FCAB
:100C00000146204600F006F8A680E580BFF35F8F1E
:100C100070BD00BF014B0B4403607047680B0020A0
:100C200070B5104C104DAC420ED2FF26236863B154
:100C3000FFF7CEFC01462046FFF7ECFFA680BFF38E
:100C40005F8F0834AC42F1D370BDFFF7C1FC0146A1
:100C50002046FFF7DFFF2671BFF35F8F0834AC42F9
:100C6000E4D370BDE8070020F007002010B504466B
:100C7000FFF7AEFC01462046FFF7CCFFFF23A38021
:100C8000BFF35F8F10BD00BF0D4B1A68EFF31081EB
:100C900072B6D2E8CFCF0120BCF1000FF9D1C2E883
:100CA0004C0FBCF1000FF4D1BFF35F8F00221B6823
:100CB000C3E88F2F81F3108840BF002000217047C8
:100CC00014150020000000002DE9F04F2DED028BDF
:100CD00085B0EFF30583DBB2103B9A0818BF012201
:100CE0004FF0010103F0030018BFAF4DAF4B08BF39
:100CF000AF4D00EB820253F8226001FA00FB05F5CC
:100D000041539FEDA78B0190C3F804B02EE0B38848
:100D1000180440F19280B379002B40F0DC80B6F9E2
:100D200008100029C0F21D81736901EB410103EB3A
:100D3000C103D3E90247B7F1FF3F08BFB4F1FF3F5A
:100D40000DD0019B05EB8301AB6A0A69D21AE31A45
:100D5000934203D32B6A13EA0B0F00D10C61284690
:100D600000F0A4FBA042B941C0F2FB80B6F9083004
:100D7000C5F83CB0002B0093C9DBD6F8149003EB08
:100D8000430A284609EBCA07D7E9024800F08EFB60
:100D9000A04271EB0801BADBB8F1000FC0F2C380CA
:100DA000D7E90431834A934200F0ED807A88B6F99E
:100DB000080092B242EA0040984702460B4652EAC7
:100DC000030100F0B080002B80F2D180B4EB020E62
:100DD00068EB030839F93A30C7E902E8002B96DBE3
:100DE000716903EB430201EBC202D2E90270BE4516
:100DF00078EB000C4FEA430289DBB4462CF8083F3D
:100E00000BE031F93230A446002B0DDB03EB43003D
:100E100001EBC0005A00D0E90270BE451A4478EBDD
:100E2000000001EBC204ECDA29F83A30009BACF880
:100E30000030B38818043FF56EAF3369EFF31082CA
:100E400072B6D3E8CF0F01210028FAD1C3E8401FC2
:100E50000028F6D1BFF35F8F4FF6FF74B0880023F0
:100E6000316900B2B480C1E88F3F82F310889842A4
:100E7000FFF651AF0746A946746906F1080807EB6B
:100E8000470E04EBCE03D3E90250B6F90830C4464E
:100E9000002B13DBB246009704E034F93630944659
:100EA000002B09DB03EB430604EBC602D2E9027117
:100EB000BD4270EB0101F0DA5646009FACF80070BD
:100EC00034F93E7024F83E30002FD8DAB3794D461D
:100ED000002B3FF424AF0023B371B6F9083006F1BC
:100EE0000808591C3DD01946776903E080465A1C12
:100EF0003FF417AF03EB430207EBC200B0F802C0A8
:100F00001C461CF4004F9E4637F93230EED08C421E
:100F100080ED028B05D0A8F80030318927F8321017
:100F200034817146E3E739F83A3033813369EFF3BE
:100F3000108272B6D3E8CF0F01210028FAD1C3E89E
:100F4000401F0028F6D1BFF35F8F7388316929F8FD
:100F50003A30009B73800023C1E88F3F82F31088F2
:100F6000D5E640BF05B0BDEC028BBDE8F08F28464A
:100F7000CDE9022300F09AFA029A039B10EB020ECD
:100F800043EB010826E708460B69029198470028C1
:100F9000C9D00299D1E9002311E700BFAFF3008067
:100FA000FFFFFFFFFFFFFFFF00800B40E414002066
:100FB00000000B40C90C00102DE9F84F364C256994
:100FC0002DB1BDE8F84F0A213448FFF723BEDFF802
:100FD000E4800321404600F057FA0326C4F80C8051
:100FE000FFF7F6FA4FF0504C2D4B26700344236167
:100FF000DCF800300F216370636961801D834FF05E
:101000000405A3F878504FF00505A3F890504FF071
:101010000605A3F8A8504FF007050E214FF6FF7202
:1010200008274FF00A0EA3F8C0504FF001094FF007
:101030000C0C4FF0020B4FF0090A0D204FF00B057E
:10104000A3F868111749A280A3F808E1A160A3F8EA
:1010500048B0A3F8F0A0A3F82051A3F838C1A3F832
:101060005001A3F83090A3F86060A3F8D8701A80FC
:101070000D4B3046C8F820700C49DC60FFF70AFBC6
:1010800049463046FFF7E4FA094B0A211F6403483A
:10109000BDE8F84FFFF7BEBDA407002014150020DF
:1010A000680B0020FFFF1000E4140020C90C0010A2
:1010B00000200B4000000B4000487047A4070020B0
:1010C000F8B59DF82070044616461D4637B900F065
:1010D000F5F9864265EB010100295CDB2369EFF33A
:1010E000108772B6D3E8CF1F01220029FAD1C3E8D6
:1010F000412F0029F6D1BFF35F8FB4F902C06369B5
:101100000CEB4C01BCF1000F4FEAC10203EBC10133
:1011100038DB985A4FF0000E60802069C0E88FEFEE
:1011200087F310880698C1E902650861079848614D
:1011300048880130C0F30E00012838BF01204880E4
:1011400040EA0C402169EFF3108572B6D1E8CF7FF9
:101150000126002FFAD1C1E8476F002FF6D1BFF367
:101160005F8FA1889952A4F804C02369C3E88FEF68
:1011700085F310880122E368217803F501538A4042
:101180005A60F8BD00232269C2E88F3F87F31088B8
:101190004FF0FF30F8BD3846F8BD00BF0146F0B54E
:1011A0000069EFF3108772B6D0E8CF5F0124002DFD
:1011B000FAD1C0E8454F002DF6D1BFF35F8FB1F9EA
:1011C00002E04C690EEB4E0CBEF1000F4FEACC056D
:1011D00004EBCC0C3DDB605B002648800869C0E86E
:1011E0008F6F87F31088BCF80200CCE9022301302E
:1011F000C0F30E00012838BF0120059BACF80200A7
:10120000CCF81030069B40EA0E40CCF814300B6945
:10121000EFF3108272B6D3E8CFCF0127BCF1000FF5
:10122000F9D1C3E84C7FBCF1000FF4D1BFF35F8F5D
:101230008B886353A1F804E00B69C3E88F6F82F3D6
:1012400010880122CB68097803F501538A405A605F
:10125000F0BD00230A69C2E88F3F87F310884FF082
:10126000FF30F0BD03464089B0EB214F37DD5869B0
:101270000A1402EB420210B500EBC2001C69EFF346
:10128000108C72B6D4E8CFEF0122BEF1000FF9D175
:10129000C4E84E2FBEF1000FF4D1BFF35F8F428838
:1012A00089B292B28A4207D000221B69C3E88F2F0D
:1012B0008CF31088002010BD42F4004242800121CE
:1012C000002218699971C0E88F2F8CF310881C7860
:1012D000DA68084602F50153A140596010BD0020AC
:1012E000704700BF2DE9F041861F41F1FF35B04244
:1012F00071EB050338BF002682B038BF354604467F
:101300000F4600F0DBF8301A65EB0103012873F19A
:10131000000306DA2046394602B0BDE8F04100F08D
:10132000D7B800F0CBF8864265EB010100290ADB53
:101330000021174B3246009316482B460191FFF7C8
:101340002DFF0028E6DB4FF0000C1348134A436AD8
:101350009D4204D8816AB142DCD29D42DAD1136841
:10136000EFF3108172B6D3E8CF8F5FF0010EB8F1C2
:10137000000FF8D1C3E848EFB8F1000FF3D1BFF385
:101380005F8F1368C3E88FCF81F3108820BFDEE73B
:10139000890C0010A407002000000B401415002049
:1013A00010B5044600F08AF84FF47A734FF0FF3C12
:1013B0006FF00042E4FB0301BDE81040844572EB8E
:1013C00001033CBF60461146FFF78CBF2DE9F04397
:1013D00006460D4683B0EFF30584E4B23CB1274BDB
:1013E000586AA8421CD2002003B0BDE8F083244F05
:1013F000D7F80C9097F80080484600F057F808F1AD
:10140000040859F828301B1A301A65EB010198427C
:1014100071F1000111DB20BF184B586AA842E2D3DA
:101420009B6AB34203D3012003B0BDE8F083401BA5
:1014300018BF012003B0BDE8F08300F03FF88642FA
:1014400065EB01010029CADB0E4B3846CDE90034BB
:1014500032462B46FFF7A2FE011EC0DD074B5A6A3B
:10146000AA4208D39B6AB34203D30548FFF7FAFEAA
:10147000B5E7AA42F9D120BFF7E700BF00000B4053
:10148000A4070020890C001010B4054B054C064A37
:10149000A04214BF1846581C5DF8044BFEF7F6BF77
:1014A000C00B002000800B40D87200100346416A38
:1014B0000A46986A596A8A42FAD17047034B596AB8
:1014C0000A46986A596A9142FAD1704700000B4067
:1014D000074A536A9942FCD8994207D1044B02E06B
:1014E0005A6A914202D19A6A8242F9D3704700BF88
:1014F00000000B4000EB400C4FEA8C0C0CF1804CD0
:101500000CF5803CF0B51646DCF80420051FB2F55A
:10151000803F38BF4FF48032EDB238BFCCF80420A2
:10152000012D2AD94FF40067254C0CF54052176065
:1015300054F82020B2B9DCF80020012D82EA4612CE
:1015400002F0E0020CF5805632602AD94FF40061B7
:1015500044F820304FF480330CF500521160CCF881
:101560000430F0BD6769B7FBF2FE0EF1010E0EEB21
:101570004E0EBEF1030EFCD2DDE70129D2D10324C9
:101580000CF540521460DCF80820D207FBD5DCF8DB
:1015900000200B4C82EA461202F0E0020CF5805665
:1015A00032600122DCF800504D4005F00305356043
:1015B00002FA01F1DCF808200A42FBD0C6E700BFBE
:1015C000C80B0020014B53F820007047C80B0020C7
:1015D00070B4039D04682D0345EA03451B4B002CA2
:1015E000B3FBF1F3B2FBF3F61FDB194A194B904240
:1015F00014BF4FF480424FF40042174C1A6003F5B9
:1016000080531A60A36832EA0303FBD1212200F55C
:1016100040530433016086601A600268002AFCDAD5
:101620000822C5601A6070BC7047036803F03F036E
:101630008B42DAD18368C3F30B03B342D5D1C368BD
:1016400003F4EE23AB42D0D1EDE700BF001BB7009F
:10165000008005400020024000000240012300EB12
:101660004000800000F1804000F58410416003607C
:10167000704700BF0023DB8A002242E800F25202DA
:1016800001D4102118470421184700BF034AD2F89B
:101690002838002BFBD0BFF35F8F704700000E404F
:1016A0000021044B044ABFF35F8F43F8041B9342AD
:1016B000F9D170470C080E402C080E4010B44FF4BE
:1016C0008D704FF42A64064A064B07491460D060B7
:1016D00019605368002BFCDA5DF8044B704700BFBB
:1016E0000080044000A0044000B0FA00704700BF32
:1016F00008B50148FEF796FEFC72001038B5054C9F
:10170000054DAC4204D254F8043B9847AC42FAD39E
:1017100038BD00BF587200109872001010B407480E
:10172000074C084B084A094904601A608B6832EA82
:101730000303FBD15DF8044B704700BF002002405B
:101740007F3BEFEF00300240F6FFF3030000024062
:10175000044BDB6CB3F5004F03D14FF48022024BF6
:10176000DA64704700001150002011504FF0E02261
:10177000044BD2F8881D0B43C2F8883D10EE3004AC
:10178000704700BF030330006FF06041044B054A0F
:1017900019609368DB4333F06043FAD1704700BFB0
:1017A000003002400000024010B545F25320FFF720
:1017B00061FFBDE8104003460420184710B545F20C
:1017C0005320FFF757FFBDE810400346012018479C
:1017D000FEF712BF70B51449144C154D641AA610CB
:1017E000442E324628BF44222846920005F018FCB9
:1017F000B4F5867F13D80F4AC6F1440112D02B19D5
:10180000480803EBC000C3E9002208338342FAD141
:10181000CB0704D521F00103334445F82320064BC0
:101820009D6070BD4323F8E7000000101001001018
:10183000000000201101001000ED00E0002370B551
:101840002B4C82B0C4F88430FFF738FF0122294BBB
:10185000DA63636C012BFCD10321264A244B11630C
:101860009C6B012CFCD10226052521460523224A2A
:1018700022480096FFF7ACFE21462B46204A21481D
:101880000095FFF7A5FE0022042031461E4BFFF70E
:1018900031FE2146284600221C4BFFF72BFE00227A
:1018A000082011461A4BFFF725FE00220920114699
:1018B000174BFFF71FFE002206201146134BFFF7C0
:1018C00019FE0022114B07201146FFF713FE0420DA
:1018D000FFF778FE00240F4BA3FB0035AD0CE0B200
:1018E00029460134FFF7BAFE062CF8D102B070BDCC
:1018F0000000014000300140002F68590000054001
:10190000008C864700800540001BB70080D1F0089E
:10191000006CDC0283DE1B4386B003B451FC080478
:10192000CDE9020151FC0904CDE9040151EC0A049E
:10193000CDE9060103BCF047BDE800504EEC00C401
:10194000BDE800504EEC01C4BDE800504EEC02C4AE
:1019500000BD000000B5FFF7DFFF02E010FE30F42D
:10196000F8D441EC100443EC112400EE010410EE15
:10197000010480EE200451EC1004704700B5FFF71D
:10198000CBFF02E010FE30F4F8D441EC100443EC3D
:10199000112400EE010410EE210480EE200451EC2D
:1019A0003004704700B5FFF7B7FF02E010FE30F4D7
:1019B000F8D410B541EC100443EC112451EC0404AC
:1019C00053EC0524A0FB024C5FF0000EE0FB03CEBD
:1019D000E1FB02CE4CEC20440024E1FB03E444ECA8
:1019E00030E480EE200451EC5004BDE81040704714
:1019F00000B5FFF791FF02E010FE30F4F8D441EC9F
:101A0000100443EC112451EC2104A0FB01126FEAF5
:101A1000820252FB100052FB12F252FB1000A0EBAC
:101A2000D07C53EC04245CFB13F153EC1524A1FB94
:101A3000022001FB030053EC4424A2EB000050FB06
:101A40001CF24FEA111312EB017043EBE27140EA12
:101A5000515020EA915020F0070053EC7524A0FB70
:101A6000023C53EC752400FB03CC01FB02CC53EC8D
:101A70000424ACEB824C40EA5C70A0F1010041EC24
:101A8000400480EE200451EC7004704700B5FFF76D
:101A900043FF02E010FE30F4F8D440EC700400EE96
:101AA000010410EE210480EE200451EC3004704754
:101AB00000B5FFF731FF02E010FE30F4F8D440EC3F
:101AC000600400EE010410EE210480EE200451ECCD
:101AD0003004704700B5FFF71FFF02E010FE30F43E
:101AE000F8D441EC800400EE010410EE010480EE15
:101AF000400410EE1304704700B5FFF70DFF02E03D
:101B000010FE30F4F8D441EC800400EE010410EE35
:101B1000010480EE400410EE3304704700B5FFF777
:101B2000FBFE02E010FE30F4F8D441EC100443EC6C
:101B3000112400EE010410EE3004C0F30070704771
:101B400000B5FFF7E9FE02E010FE30F4F8D443ECF4
:101B5000102441EC110400EE010410EE30F48CBFAF
:101B600001200020704700BF00B5FFF7D5FE02E05E
:101B700010FE30F4F8D441EC100443EC112400EED4
:101B8000010410EE30F42CBF01200020704700BF8C
:101B900000B5FFF7C1FE02E010FE30F4F8D441ECCE
:101BA000100443EC112400EE010410EE30F48CBF5D
:101BB00001200020704700BF704700BF2DE9F04FA3
:101BC00083B09946DDE90DAB0F9B884611469A0715
:101BD000074616D1DA453AD20C460D46ABEB0A065B
:101BE0000E4422464B46414620200134B847B442B9
:101BF000F7D12946BAF1000F08D1204603B0BDE85D
:101C0000F08F0C46BAF1000F10D00E4655460C9BD3
:101C10002E449A440191721B4B46013D41461AF8ED
:101C2000010D3446B847002DF5D101990F9B9B0754
:101C3000E3D5651AAB45E0D922464B464146202004
:101C40000135B8475D4504F10104F5D3D5E7BAF194
:101C5000000FDAD10C46D0E72DE9F04F0F9FDDF8E9
:101C600024E017F0020F0A9C9DF82C900E9DDDE9F0
:101C70000C8629D1002D6FD1B44225D2202C07F03B
:101C8000010B00F0128104F1FF3C4FF0300AF444E4
:101C900001E0202C7AD00134A6420CF801AFF8D82C
:101CA000BBF1000F10D0AC420ED2202C74D004F146
:101CB000FF3C4FF0300AF44401E0202C29D00134DD
:101CC000AC420CF801AFF8D117F0100F3AD017F46E
:101CD000806F28D11CBBB8F1100F00F0CA80B8F19A
:101CE000020F00F0D48030248EF800400124B9F1B6
:101CF000000F67D17E0740F1AA802B260EF8046002
:101D00000134CDE90B57CDE909E4BDE8F04FFFF709
:101D100055BFFC0640F189807C0535D42024A642BD
:101D20006AD0AC4268D0B8F1100F00F08780B8F1EB
:101D3000020F5AD0202CE4D0264601344FF0300C4C
:101D40000EF806C0202CD2D1CDE90B57CDE909E41D
:101D5000BDE8F04FFFF732BF17F0010B3ED0B9F1ED
:101D6000000F47D117F00C0F44D1B4429BD2202C66
:101D700089D1202D10D8FC0657D57C0555D4202EAE
:101D800000F0B980202D10D02024CCE7BBF1000F4B
:101D900000F0A580202DBCD9FC0646D57C0544D496
:101DA000202E00F0A880202D3FD12C461F26B8F110
:101DB000100F7FD0B8F1020FC0D14FF0620C0EF8B7
:101DC00006C0B7E72D260EF804600134CDE90B57A5
:101DD000CDE909E4BDE8F04FFFF7F0BEB442BFF42F
:101DE00073AF202C7FF44FAFD6E7202C89D0264646
:101DF0000134E2E7013DB8E7661ED8D1B8F1100F13
:101E000064D0B8F1020F7FF46EAF62268EF80060E6
:101E1000302644468EF80160B9F1000F3FF46AAFF6
:101E2000D0E7B8F1100F7FF46CAF2024CDE90B5749
:101E3000CDE909E4BDE8F04FFFF7C0BEBE060ED401
:101E4000202CF2D078260EF80460013472E73E07A9
:101E50007FF557AF20260EF80460013451E7202C9F
:101E6000E3D04FF0580C0EEB040686F800C00134A6
:101E700060E7BE0617D558248EF8004030248EF84F
:101E800001400224B9F1000F3FF434AF9AE7622415
:101E90008EF8004030248EF801400224B9F1000F82
:101EA0003FF428AF8EE77824F2E7BBF1000F7FF410
:101EB00062AF71E717F0200F0CBF4FF0780C4FF0B6
:101EC000580CA61E0EF806C0013C35E7BC06EAD544
:101ED00058248EF8004030248EF80140DDE717F0DA
:101EE000100F3FF40EAF17F4806F9AD1202E7FF4BD
:101EF00018AF1F265BE734461F2658E700B9704726
:101F000001F06ABA10B1D1E900311847704700BF3B
:101F10002DE9F04F9FB09DED287BDDE92AA558EC17
:101F2000177B83461E460D91109243463A4638462B
:101F300041468DED087B2C9CFFF7F4FD002840F016
:101F4000D880384641464FF0FF32754BFFF724FEEC
:101F5000002840F0CE80384641464FF0FF326FF403
:101F60008013FFF7F1FD002840F0C380DDE9087819
:101F70000022384641460023FFF7E6FD002840F0E6
:101F8000C081CDE90A78DDE90A2390461F4614F4A2
:101F9000806308BF4FF0060A139304F4006258EA06
:101FA0000703119240F0C080002A00F0A2819FED4B
:101FB0005A7B00278DED0E7B4FF00009BA45CCBF50
:101FC000AAEB070A4FF0000A4F46C8BF0AF1FF3AD2
:101FD00044F480644D4594BF4FF00008A5EB090818
:101FE00014F00203119304D0B9F1000F18BF4FF0A1
:101FF00000083FB1DDE90A01DDE90E23FFF7FCFC33
:10200000CDE90A01DDE9080100220023FFF79CFD6C
:1020100030B1DDE90A01024601F10043CDE90A23AE
:102020009DED0A7BCDE902A8DDF834A024F400631D
:1020300004938DED007B334651465846109A00F0CC
:1020400097F98046B9F1000F4FD014F0200F0246E7
:1020500000F1010433460CBF652045205146D847A6
:1020600009F1FF3087EAE77C0DF1580900224B4661
:10207000DFF8B080ACEBE77C4FEAD77E01E0202AA6
:1020800010D0E246A8FB0C71C90801EB8107ACEB4C
:1020900047073037BAF1090F8C4602F1010203F805
:1020A000017BECD805230590069300200A230D9FA1
:1020B000CDE90330CDE9012E334622463946584654
:1020C000CDF80090FFF7C8FD119B80466BB1109BC7
:1020D000C41AA54209D94246334639462020013464
:1020E000D847A54208F10108F5D840461FB0BDE821
:1020F000F08F9DED087B33465846109A0D998DED73
:10210000287BCDE92B54CDF8A8A01FB0BDE8F04F37
:1021100000F02EB9AFF300800000000000000000C6
:10212000FFFFEF7FCDCCCCCCC7F30A50A0F2FF303D
:10213000FFF7B0FC8AA3D3E90023FFF737FC8AA39B
:10214000D3E90023FFF70AFCC7F31307CDE90E011B
:1021500047F07F51404600227B4B41F44011FFF78E
:1021600011FC6BA3D3E90023FFF720FC02460B46CA
:10217000DDE90E01FFF7F2FBFFF7B0FC0746FFF7C2
:1021800089FC65A3D3E9002380468946FFF70EFC4E
:1021900000226E4BFFF7E2FBFFF7A0FC0346494627
:1021A000404612935EA3D3E90023FFF7FFFB80466E
:1021B00012988946FFF76EFC5BA3D3E90023FFF773
:1021C000F5FB02460B4640464946FFF7DBFB02465D
:1021D0000B4680468946FFF7E9FB42464B46CDE970
:1021E0000E0140464946FFF7B9FB0022CDE9140134
:1021F000DDE90E01564BFFF7FFFB0022554BFFF7C1
:10220000ADFB02460B46DDE90E01FFF7F5FB0022B0
:10221000514BFFF7A3FB02460B46DDE90E01FFF72A
:10222000EBFB42464B468046894600204FF08041FA
:10223000FFF7A8FB02460B4640464946FFF78EFBD8
:1022400002460B46DDE91401FFF7D6FB0022434BA3
:10225000FFF784FB129B002203F2FF3C4FEA0C5372
:10226000FFF7A4FB80468946DDE90A0142464B465A
:10227000CDE90E89FFF768FC68BB4346494607F184
:102280006302C62A119A8CBF4FF005094FF004096A
:10229000002A3FF49FAE0B433FF48EAEDDE90A0106
:1022A00023A3D3E90023FFF763FC48B1DDE90A016A
:1022B00021A3D3E90023FFF747FC00287FF47CAE7D
:1022C000BAF1000F3FF486AE139B002B3FF482AEB1
:1022D0000AF1FF3A7EE600221E4B40464946FFF7D0
:1022E0008BFB0A4601460346CDE90E12013F11461B
:1022F000C5E79FED137B17464FF004098DED0E7B6C
:1023000068E608F100430A970B933CE6AFF30080C0
:1023100061436F63A787D23F71A379094F930A4046
:102320001655B5BBB16B0240EF39FAFE422EE63FBF
:102330002D431CEBE2361A3F0000000080842E4142
:1023400000000000000000000000F83F0000E03F37
:1023500000002C4000002440000018400000F03F26
:10236000FB799F501344D33FB3C8608B288AC63F84
:102370002DE9F04F97B0DDE92089CDE90401DDE9D1
:10238000224BCDE90623404642464B464946DDF8FE
:1023900090A0FFF7C7FB002840F0C58140464946A2
:1023A0004FF0FF326FF48013FFF7CEFB002840F0B0
:1023B0001D81404649464FF0FF32C14BFFF7ECFB11
:1023C000002840F0E380B8A3D3E900234046494603
:1023D000FFF7E2FB002840F0CB80B5A3D3E9002350
:1023E00040464946FFF7B0FB002840F0C180404618
:1023F000494600220023FFF7A7FB002840F0E080B9
:102400001AF480650D9000F0E980092C40F2968165
:102410000EAB1A460C9330210023A4F109050133B9
:10242000202B02F8011BA4EB030600F03A81AB421B
:10243000F5D19FED9D7B8DED087B49464046FFF72A
:102440004DFB0446FFF726FB02460B464046494635
:10245000FFF798FADDE90823FFF7A8FA02460B46D2
:10246000CDE90A23FFF74CFB0746FFF725FB0246A1
:102470000B46DDE90A01FFF785FA02460B46CDE976
:102480000A2300228F4BFFF787FB002800F0DB8038
:1024900001373846FFF710FBDDE90823FFF768FB3B
:1024A00008B100270134002E40F0B1802046FFF72C
:1024B000F1FA02460B4640464946FFF763FA00220E
:1024C000804B06460F46FFF73FFB40B93046394682
:1024D00000227C4BFFF760FB002800F015810C9B6D
:1024E000691E7948194410E080FB0462C3EBA20323
:1024F00003EB8302A4EB420404F1300201351C46D5
:1025000001F8012F002B00F0AB80202D4FEAE4737F
:10251000EAD10AF00303012B1CD1BBF1000F19D043
:102520000D9B002B40F0F9801AF00C0F40F0F58065
:10253000AB4540F2D380202D0BD030220C996B1E7E
:102540000B4401355D4503F8012F00F08D80202DEF
:10255000F7D12025DDE90623DDE904010C9CCDE956
:1025600002BA01950094FFF729FB17B0BDE8F08F80
:10257000CDE92089DDE90623DDE90401CDE923BAAF
:10258000229417B0BDE8F04FFFF7C2BC4F4DCDF815
:102590008CA00AF0040ABAF1000F4D4C18BF2C466B
:1025A000DDE90623DDE9040120940CBF03240424A3
:1025B000CDF888B0219417B0BDE8F04FFFF7FEBA10
:1025C0004B46424600200021FFF7DCF901231AF4B4
:1025D0008065804689460D937FF417AF9FED367B6B
:1025E0000EAB06268DED087B0C9326E70424DDE96F
:1025F0000623DDE90401374DCDF88CA0CDF888B075
:102600002095219417B0BDE8F04FFFF7D7BA0C9B87
:10261000681EDFF8C4C018440DE0ACFB0721C908F0
:1026200001EB8102A7EB42023032092F00F8012FA3
:1026300027D90F461D46202D05F1010306F1FF366F
:10264000EBD120254BE70022DDE90A011D4BFFF706
:102650007BFA00287FF427AF002F5AD1013722E7F9
:102660000AF00303012B75D0202D3FF473AF0D9BAF
:10267000BBB32D2205F158036B4403F8202C013520
:1026800068E7202BDDD0AEB30C9A1E4415443022EF
:1026900001E0B3422ED00133202B05F8012FF8D1F1
:1026A000CFE71D46C5E600BF0000000065CDCD4167
:1026B0000000000065CDCDC10000000080842E41E7
:1026C000FFFFEF7F0000E03F67666666447300101F
:1026D0004C73001054730010CDCCCCCC202D3FF4A3
:1026E00039AF1AF0040F0DD11AF0080F3FF432AFD2
:1026F0002022BFE72E2103F158026A4402F8201C71
:102700005D1CECE62B22B5E7E3077FF5E8AE01346C
:10271000E5E6FA077FF5C7AEA0E70BF1FF3BAB4557
:102720003FF609AFA0E70324DDE90623DDE9040154
:102730000A4DCDF88CA0CDF888B061E7084B26464D
:1027400003EBC40393ED007B0EAB8DED087B0025FE
:102750000C9372E6BBF1000F86D0E1E650730010D7
:10276000807700102DE9F04F9A469BB0249C964D3F
:102770000B94964C0B1E18BF834625609AF80000F8
:10278000934C0A9308BFA3460992002800F0BC822C
:102790004FF000090AE04A46099B0A9909F101092C
:1027A000D8479AF80000002800F0CE8025280AF1CA
:1027B000010AF0D10023524612F8010BA0F12001CA
:1027C00010290AD8DFE801F04009093C0909090984
:1027D00009090938093409093000A0F13001092933
:1027E00040F28C802A2800F0F58000210C912E28E0
:1027F00000F099800027A0F1680112292DD8DFE8A8
:1028000011F057012C0051012C0045012C002C0027
:102810002C002C002C002C002C0027002C002C005D
:102820002C002C002C002700924643F00103C2E745
:10283000924643F00203BEE7924643F00403BAE730
:10284000924643F01003B6E7924643F00803B2E71E
:102850009AF8010043F4807301326728924600F22F
:102860008280242840F2C680A0F12502422A00F28C
:10287000C180DFE812F05F01BF00BF00BF00BF00F2
:10288000BF00BF00BF00BF00BF00BF00BF00BF0050
:10289000BF00BF00BF00BF00BF00BF00BF00BF0040
:1028A000BF00BF00BF00BF00BF00BF00BF00BF0030
:1028B000BF00BF00BF00260145012601BF00BF00C9
:1028C000BF00BF00BF00BF00BF00BF00BF00BF0010
:1028D000BF00BF00BF00BF00BF00BF00D301BF00EB
:1028E000BF00BF00BF00BF00BF00BF00BF00BF00F0
:1028F000D3016701D301260145012601002100E033
:10290000013201EB810100EB410110789246A0F108
:102910003004092CA1F13001F2D92E280C9102F1DA
:1029200001027FF467AF9AF801001146A0F130066A
:10293000092E43F4806340F231812A2800F03E8161
:1029400092460027013256E74C46099B994501D330
:1029500003F1FF394A460020099B0A99D8472046CF
:102960001BB0BDE8F08FA0F16902D2B20F2A41D8A6
:10297000012649F2410196400E4040F001810A2AA9
:102980003FD0072A36D10B9C54F8042B002A00F0C4
:10299000288143F021010DF1480E704603E0202EFE
:1029A00000F029811A4602F00F052B46092D94BF2D
:1029B000303337330F2A00F8013B06F101064FEAA6
:1029C0001213ECD817E100BF65270010E0140020B7
:1029D000B91B00100B9C9AF8010054F8045B924656
:1029E000002DBDBF694243F002030C910C950B947E
:1029F0000132FCE64A46099B0A9909F10109D847C8
:102A0000CFE60B9951F8048B98F800201046002F60
:102A100040F0E18072B16FF0010C0CF1010C464600
:102A2000C44401E0664503D016F8014F002CF9D1EB
:102A3000A6EB080613F4806C02D0BE4228BF3E46C7
:102A400013F0020400F08781002A00F02B81BCF112
:102A5000000F00F041810B940D964A46DDE90954C0
:102A60000E464F4408E02B462146D84718F8010F80
:102A700009F1010910B14A464F45F4D131460B9C8A
:102A80000D9E002C40F00E810B918AE69AF8010011
:102A90006C287FF4DFAE9AF8020043F440730AF129
:102AA0000302DAE69AF8010043F400730132D4E637
:102AB0009AF80100682800F0208143F08003013279
:102AC000CBE6672800F0E780472800F00081452822
:102AD00000F0FF800B9C04930C9B0734CDE902733C
:102AE00024F007031C46DDE90931F4E802674A4691
:102AF0005846CDE900670B94FFF70AFA814650E685
:102B000046280B9C08BF43F0200304930C9B07341A
:102B1000CDE9027324F007031C46DDE90931F4E82E
:102B200002674A465846CDE900670B94FFF720FC40
:102B3000814636E64A462520099B0A9909F1010992
:102B4000D8472EE60B9A9C0702F1040709F101060B
:102B500040F1E6801078099B4A460A99D8470C9BB9
:102B6000012B40F22C81DDE90954994432462B4671
:102B7000214620200136D8474E45F7D10B9710E665
:102B80006F2800F08B8040F26581782800F0088182
:102B90004FF00A0823F01003C44647E0002707EB74
:102BA000870700EB4700A0F1300711F8010FA0F1F3
:102BB0003002092AF3D98A464A1C1CE60B9C9AF873
:102BC000020054F8047B0AF1020A0AF101020B9494
:102BD00027EAE7770FE6002A3FF42CAF07F1FF3C26
:102BE0001BE723F0100113F4806241F021013FF450
:102BF000D2AE0DF1480E08231020059300234A465B
:102C0000CDE9023006915846DDE90931CDE900E60B
:102C10000497FFF721F80B948146C2E5582879D034
:102C2000622840F051824FF00208C44613F48060DD
:102C30006DD123F00C0313F4007240F0C2800B99A5
:102C400004310D9113F4807140F02E825E060B9AD0
:102C500040F1AA801278002A40F0DA8023F01003B5
:102C6000002800F0D58011460DF1480E06930C9B0C
:102C7000CDF80CC0CDE90473019100234A460293BC
:102C80005846DDE90931CDF800E0FEF7E5FF0D9B80
:102C900081460B9385E543F400631BE74FF008087A
:102CA000C446C3E70C9B4C46B3427FF6EDAE0F46DD
:102CB0004B44A3EB0609DDE9096522463346294664
:102CC00020200134D8474C45F7D13946DCE643F49F
:102CD000006343F02003FDE60F460B94DDE9095441
:102CE0004A462B462146D84718F8010F09F1010939
:102CF0000028F5D139460B9CC3E69AF8020043F050
:102D0000C0030AF10302A8E5044681461DE623F04C
:102D10000D0390E74FF0100843F02003C44685E709
:102D20000C9B012B45D9DDE909544E4609F1FF38CA
:102D3000984432462B46214620200136D847464546
:102D4000F7D10C9B324699440B9B1878DDE9093189
:102D5000D8470B9725E50C9BB34240F2EE81CDE9B5
:102D60000D48DDE9095488464B449E1BCDF82CC024
:102D70004A462B462146202009F10109D847B14592
:102D8000F6D14146DDF838800C9BDDF82CC00D9C57
:102D900098F800205E1C1046002A7FF458AE73E6B7
:102DA0004FF01008C44641E71D064CBF1288126858
:102DB00051E713464A461878DDE90931D847B1464C
:102DC000DCE60B9C073424F007042246656852F8C1
:102DD000084B0B9254EA050240F02C8123F01003BB
:102DE000002800F0278100260DF1480E06930C9B69
:102DF0004A46CDE904730023CDE900E6CDF80CC0C6
:102E000002935846DDE90931FEF726FF8146C8E402
:102E100013F0200F14BF412061200DF1480E7646BB
:102E2000A0F10A0803E020293FF420AF2246B2FBBC
:102E3000FCF40CFB1425E8B2092D00F130058ABF23
:102E40004044E8B2C0B2624506F8010B01F101014D
:102E5000E9D20BE723F0100269280D9240F06F8150
:102E600013F4806204D04FF4806223F011030D93B9
:102E70000D9B13F4007640D10B9B03F104080D9BCE
:102E800013F4807040F09880590640F1C6800B9B87
:102E900019780C46CB0F002900F0B98022460DF1BD
:102EA000480E74461646DFF8A0C201E020280FD075
:102EB0003546ACFB0621C90801EB8102A6EB4202B4
:102EC0003032092D0E4600F1010004F8012BEDD837
:102ED0000D9ACDE9010306920C9ACDE904720A23FA
:102EE0004A4603935846DDE90931CDF800E0FEF784
:102EF000B3FECDF82C80814653E40B9C073424F0BC
:102F0000070421460846636850F8081BDC0F0B9045
:102F100051EA030000F0C3800A46191E48DB13463D
:102F20000DF1480EF4460026CDE90E94DFF8188224
:102F300001E0202E2DD05A1842F10002A8FB0259C0
:102F400029F0030505EB9905521B1C469B1A61F1FC
:102F5000000508464FF0CC3101FB03F108FB0511D9
:102F6000A3FB08531944052305F00109A9FB033904
:102F70009B180A2C03F130034FEA550570F100004D
:102F80000CF8013B06F1010645EAC1734FEA510115
:102F9000CFD2DDE90E940D9B4A4606930C9BCDE9FA
:102FA0000164CDE904730A23CDF800E0039328E718
:102FB000524261EB4101B2E70B9B1968CB0F00292C
:102FC00000F0AB8081EAE172A2EBE1720DF1480EF4
:102FD0007046DFF874C101E0202E10D01546ACFB1E
:102FE0000241C90801EB8104A2EB440404F1300260
:102FF000092D00F8012B06F101060A46ECD80D9ABE
:10300000CDE9016306920C9ACDE9047267E7002AC4
:103010003FF445AF0DF1480E5AE713F0800F0B9BBC
:1030200000F08180B3F9001081EAE174A4EBE1744F
:10303000A4B22FE713F0200F14BF412261220DF13B
:10304000480E0A3ACDE90D97CDF844B000267746F0
:10305000F3469146CDE90F3C03E0202E17D00446FD
:103060000D46294642460023204604F0D5F8D2B248
:10307000092A02F1300388BF02EB09034445DBB2A1
:1030800075F1000507F8013B06F10106E5D2DE46C1
:10309000DDE90D97DDE90F3CDDF844B0A6E6002A36
:1030A00047D1134611463BE70B990968A1B923F0B4
:1030B000100388B10DF1480E06930C9BCDF80CC09F
:1030C000CDE904730192D8E513F480627FF4CBAEAE
:1030D00023F010030D93CBE613F0200F14BF412013
:1030E00061200DF1480E7646A0F10A0802E0202A80
:1030F000E2D02146B1FBFCF40CFB1415E8B2092D1B
:1031000000F130058ABF4044E8B2C0B2614506F81C
:10311000010B02F10102EAD2CEE7002A3FF456AFDA
:103120000DF1480E6BE7196881EAE174A4EBE174D4
:10313000B0E600260DF1480E2DE701362BE64FF0E4
:103140000A081346C44671E5CDCCCCCC70B5944684
:103150001E4605460C4684B04FF0FF32634602A976
:1031600000960348CDE90254FFF7FCFA04B070BDA5
:10317000051F001010B5094B84B01C684CB1034604
:1031800000914FF0FF3203A90548A047012004B089
:1031900010BD00F063F9204604B010BDE01400201B
:1031A000FD1E001000BEFDE708B5FFF7FBFF00BFE6
:1031B00038B5064C064DFEF7A1FAAC4204D254F8DD
:1031C000043B9847AC42FAD338BD00BF9872001058
:1031D000A47200100368084611461847437D2DE984
:1031E000F04781460F461646002B43D0002A3BDDB0
:1031F000037D00204D1E014615F8012FDFF8848065
:103200000A2A01F101040ED0A6421CD02B782146D7
:10321000A3F10D03B3FA83F315F8012F5B090A2A12
:1032200001F10104F0D1002BEED18142A1EB0001AC
:1032300038441BDC02214046D9F800309847A642AA
:1032400008D02046E2E7864204DD311AD9F8003082
:1032500038449847374417F8013CA3F10D03B3FAFB
:1032600083F35B0989F81430BDE8F087D9F80030A2
:103270009847DFE73846D9F800301146BDE8F047F7
:10328000184700BFD07700100B682DE9F041802B64
:103290000D46064605D05A1C2B442A601E71BDE817
:1032A000F0810F4B1C68A4B10E4F01F1040801E03E
:1032B000246974B12368002BFAD03B680BB1A34298
:1032C000F6D1204641462A68FFF788FF2469002C82
:1032D000F0D1002301222B442A601E71BDE8F08149
:1032E000D8140020DC1400202DE9F04782B00D46F0
:1032F000924699460746FEF7E1F84FF0FF366FF029
:1033000000442F4A821841F10003964274EB0301F6
:103310003CBF324623462B4803F086FF6B1C804699
:1033200003D1384603F0F8FE0546274B274E1C68AC
:10333000274BB9F1000F18BF1E46B4B1BAF1000F08
:103340001AD1DFF8909001E0246974B12368002B52
:10335000FAD0D9F800300BB19C42F5D120462A466C
:103360003946B0472469002CF0D1B8F1000F1FD1C5
:10337000284602B0BDE8F0874FF00A0ADFF8549003
:1033800002E02469002CF0D02368002BF9D0D9F892
:1033900000300BB1A342F4D12A4639462046B0474B
:1033A000012220460DF107018DF807A0B047E8E79C
:1033B000044803F035FF284602B0BDE8F08700BF9F
:1033C00040420F00E8070020D8140020D53100103B
:1033D000DD310010DC140020F0B583B006468DF816
:1033E0000700FEF76BF84FF0FF356FF00044174A07
:1033F000821841F10003954274EB03013CBF234660
:103400002A46134803F010FF124B07461C689CB174
:10341000114D01E024697CB12368002BFAD02B68A0
:103420000BB19C42F6D1204601220DF10701FFF7B6
:10343000D5FE2469002CEFD117B9304603B0F0BD9A
:10344000034803F0EDFE304603B0F0BD40420F00EC
:10345000E8070020D8140020DC14002038B504460A
:1034600003F05AFE012305461A4620462946FFF777
:103470003BFF084B1C682CB163682BB1984724694B
:10348000002CF9D1284638BD2469002CF4D12846F7
:1034900038BD00BFD81400202DE9F041A2B0044689
:1034A0000D46FEF70BF84FF0FF376FF00046274A46
:1034B000821841F10003974276EB03013CBF3A4684
:1034C0003346234803F0B0FE00262B46074622462B
:1034D000204801A90196FFF739FE019B06467BB9FA
:1034E0001D4B1C682CB1636843B198472469002CBC
:1034F000F9D10FBB304622B0BDE8F0812469F1E775
:10350000DFF85480D8F80050EDB1144C01E02D697B
:1035100075B12B68002BFAD023680BB1AB42F6D102
:103520002846019A02A9FFF759FE2D69002DF0D116
:10353000D8F800400195D5E7054803F071FE304604
:1035400022B0BDE8F0810195D3E700BF40420F00F3
:10355000E807002089320010D8140020DC14002075
:103560000FB400B583B004A951F8040B0191FFF723
:1035700093FF03B05DF804EB04B07047014B186093
:10358000704700BF940B002003460A4601481946C5
:1035900002F058BEFC0B0020014B1868704700BFBA
:1035A000940B002030B583B0FFF7F6FF30B103F085
:1035B000C5F80446002074B103B030BD684603F07E
:1035C0001DFB69460D4803F01FFB98B10B48FFF740
:1035D000D5FF0A48EBE7FFF7DFFF054603F0CAF81F
:1035E000064B9D4206D12B6828465B6B98472046C8
:1035F000FFF7C4FF4FF0FF30DEE700BFF007002009
:1036000000B545F247308BB0FEF734F8012203468F
:10361000092101A89847DDE90332044912BA1BBA0F
:10362000C1E900230BB05DF804FB00BF0C150020BE
:103630000346024A03CA1860596070470C150020FF
:1036400008B50520FDF7BEFF6421030C01FB03F361
:10365000034A5B08A2FB03231B0A033BFDD208BD00
:103660001123970838B5D0F84C48A4B12168054615
:1036700031B1D4E90132154802F068FF002323601C
:1036800094F90C00002813DA94F90D00002803DAED
:103690000023C5F84C3838BD02F094FF94F90D00B2
:1036A00002F07AFFFF2363730023C5F84C38F2E77A
:1036B00002F088FF94F90C0002F06EFFFF2394F9EA
:1036C0000D0023730028E3DBE6E700BFD47700108A
:1036D00006232DE9F04F87B0019301264FF6FF73C3
:1036E0004FF0180800253F4C0296CDF80080814627
:1036F000A381C0F84C4821463B482560231D04F1B6
:10370000080202F065FE002866D0D4E9013137488E
:1037100003F1050C826FDB01D243354F43EA0C33D2
:1037200023F0C04302F030020593BA67806F4FF474
:10373000003BC0434FF4403A00F00100B8672068F6
:1037400001EB410CD0F8687100F5005EC7F1180775
:1037500006FA07F7CEF83870059F00EBCC0CCCF8D2
:10376000C8B0CCF8D0A0CCF8CC70224F3346CCF8FF
:10377000DC701D22009602F0E5FD2168404601F153
:103780002F4101F56001090D0631C9B2FCF788FD32
:10379000324629464046FCF7A1FD31464046FCF73B
:1037A000B1FD4EF20101A368226803EB430302EB73
:1037B000C302C2F8D810284602F0F4FE207328464F
:1037C00002F0F0FE237B40B260731843030603D47B
:1037D000284607B0BDE8F08F4846FFF743FF6FF07B
:1037E0000500F6E7B00B0020D477001000800340FE
:1037F0000090034018771C242DE9F04F87B016463F
:103800001F460391002900F01981D0F84C48182078
:10381000216801F12F4101F56001090D0631C9B29E
:10382000FCF73EFD21681D2001F12F4101F56001EB
:10383000090D0631C9B2FCF733FD012200211D201C
:10384000FCF74CFD19234FF0000242EC4030039B83
:10385000002F00F0F9804FF00108002B08BF3B4615
:103860004FF0004C2068A168D0F800B008FA01F2CF
:103870002BEA0202039301EB4103D4F8049000EB1E
:10388000C30E0260DEF8CC2009F1050A6FF3D012F6
:1038900042EA0A320EF5865342EAC912CEF8CC202B
:1038A000C3F810C04FF08072C3F810C00023CDE9F8
:1038B000002302F013FDD4E90031109801F01F013C
:1038C0000591811BA268C900481E0146101D049085
:1038D00002EB420003EBC005101D03F5005A08FA85
:1038E00000F0CAF8000046F2200002F1080E4FEA8C
:1038F000C60C03EB820908FA0EFE0CF1FF3CCAF875
:1039000000E0C9F810C0C5F8D80046F240004FF0FA
:10391000A04BC9F810100599C5F8D800C5F8D81003
:1039200094F90C90DDE9035108FA09F04FEA891E79
:10393000CBF864040EEB0B0CDCF80C004001FBD45C
:103940004FF0010A94F90D8003954FEA881C0AFA9A
:1039500008FA0CF1A040CBF864A48246039DDAF883
:103960000C004001FBD40EF1A04ECEF800500395A0
:10397000012503F12F40DFF81CA200F56000000DC7
:103980000AEA49390AEA483A02EBC00849EA4848D3
:10399000049101EBC00010994AEA404A48F0807057
:1039A0004FEA9608C8EB9109049995404AF0807255
:1039B00003EB810A0CF1A04C0AF1100140F0190050
:1039C000CEF804A042F04902CEF80880CEF80C00F0
:1039D000CCF80010B919CCF80410CCF80890CCF849
:1039E0000C201A6815431D6094F90C20920102F115
:1039F000A04213695801FCD494F90D309B0103F1E6
:103A0000A043196911F08061FBD13246384603F0BA
:103A1000F5F94AF20300A368226803EB430302EBC3
:103A2000C3034FF001011922C3F8D80041EC402034
:103A3000FFF706FE002007B0BDE8F08F002B7FF4F3
:103A4000E4AE6FF00400F6E7002BE2D04FF001087F
:103A50004FF0004C2068A168D0F800B008FA01F2DD
:103A600001EB41032BEA0202D4F8049000EBC30EF1
:103A70000260DEF8CC2009EB080A6FF3D01242EAAC
:103A80000A320EF5865342EAC912CEF8CC20C3F8AA
:103A900010C04FF08072C3F810C00023CDE900239E
:103AA00002F01CFCD4E90031A26803F5005A151D90
:103AB00008FA05F0CAF8000046F2200001F01F01E4
:103AC000049102F1080E4FEAC60C02EB420103EB2F
:103AD000C10108FA0EFE0CF1FF3C03EB8209CAF8A3
:103AE00000E0C9F810C0C1F8D80046F240004FF01D
:103AF000A04BC9F81070049FC1F8D800C1F8D87065
:103B000094F90CC0284608FA0CF14FEA8C1E039D6C
:103B1000CBF864140EEB0B07F9684901FCD40EF1E5
:103B2000A0410D600395012503EB8000486003F17F
:103B30002F4000F56000000D02EBC0009540154AD3
:103B4000B60802EA4C3242EA404242F0807242F049
:103B500019028E60CA601A682A431A600B695B01F9
:103B6000FCD40122A368216818339A408A608B68CC
:103B70001342FCD0012300272068A168066803FADD
:103B800001F526EA050606601822009702F0DAFB26
:103B90003FE700BFFDFF01FC10B51720FCF71EFC3E
:103BA000012117200C4641EC44000022FCF796FB53
:103BB0001820FCF713FC182344EC44304FF00002AB
:103BC00042EC40301920FCF709FC192344EC443046
:103BD00044EC403010BD00BF38B517254FF000044D
:103BE00044EC4050142002F043FE4FF0010343EC3C
:103BF0004050FA2002F03CFE1820FCF7EFFB18239F
:103C000044EC443038BD00BF30B5082300250C4CCF
:103C100085B004EAC22444EA0174009344F080446D
:103C2000042229466B4444F00404039564BA0294C8
:103C3000FFF7E2FD08B9039840BA05B030BD00BFF8
:103C400000F8FF0F944630B50D460422104C89B0A1
:103C500004EACC2444EA057444F0804414430294FA
:103C6000A5F10104B4FA84F46409944008340021F5
:103C700002AB0094FFF7C0FD40B9012D14BF012332
:103C8000052308AA02EB830353F8180C09B030BDD2
:103C900000F8FF0F944630B50D46124C89B004EA87
:103CA000CC2444EA057444F0804444F002040294B5
:103CB000A5F10104B4FA84F40422640994400834A0
:103CC000002102AB0094FFF797FD40B9012D14BF0E
:103CD0000123052308AA02EB830353F8180C09B04B
:103CE00030BD00BF00F8FF0F944630B50D46124CB2
:103CF00089B004EACC2444EA057444F0804444F0DA
:103D000001040294A5F10104B4FA84F404226409C4
:103D100094400834002102AB0094FFF76DFD40B9D8
:103D2000012D14BF0123052308AA02EB830353F8D6
:103D3000180C09B030BD00BF00F8FF0F2DE9F04F9F
:103D40005BBA04466E4DD4F84C4805EAC22545EAF4
:103D50000175216887B001F12F4101F56001090D5E
:103D60000631182045F04042C9B242F0040252BA6E
:103D7000CDE90423FCF794FA21681D2001F12F41BD
:103D800001F56001090D0631C9B2FCF789FA01227B
:103D900000211D20FCF7A2FA0027192347EC403030
:103DA00001254FF000462068A168D0F8009005FA80
:103DB00001F201EB410329EA0202D4F804E000EB2E
:103DC000C30C0260DCF8CC200EEB05086FF3D012B8
:103DD00042EA08320CF5865342EACE12CCF8CC20E7
:103DE0001E614FF080721E6100234FF03F0A46F2C1
:103DF0002009CDE9002302F071FAD4E90031A2686C
:103E000001F01F010391101D02F1080602EB4201AF
:103E100005FA06F603EBC10103F5005E03EB820C25
:103E200005FA00FBCEF800B0CEF80060CCF810A088
:103E3000C1F8D890CCF8107046F240074FF0A04877
:103E4000039EC1F8D870C1F8D86094F90C60B540F1
:103E5000B701C8F8645407EB0805E9684901FCD4C8
:103E60004FF0010C07F1A041022703F12F4505F5A2
:103E700060052D0D02EBC5050CFA02FC214A03EB8F
:103E8000800002EA463242EA454242F0807242F045
:103E9000190204AD0D6048608F60CA601A684CEA70
:103EA00002021A600B695B01FCD40122A36821683D
:103EB00018339A408A608B681A42FCD0012600278A
:103EC0002068A168036806FA01F523EA0503036088
:103ED00018223346009702F035FA4AF20300A2682E
:103EE000236802EB420203EBC2031921C3F8D80096
:103EF00046EC4010FFF7A4FB384607B0BDE8F08F52
:103F000000F8FF0FFDFF01FC2DE9F04F04466E4D58
:103F1000D4F84C4805EAC22545EA0175216845F008
:103F2000404501F12F4101F56001090D063187B0CF
:103F3000182045F00405C9B2CDE90453FCF7B0F9E7
:103F400021681D2001F12F4101F56001090D0631A5
:103F5000C9B2FCF7A5F9012200211D20FCF7BEF92A
:103F60000027192347EC403001254FF00046206818
:103F7000A168D0F8009005FA01F201EB410329EAAB
:103F80000202D4F804E000EBC30C0260DCF8CC20A1
:103F90000EEB05086FF3D01242EA08320CF5865397
:103FA00042EACE12CCF8CC201E614FF080721E6126
:103FB00000234FF03F0A46F22009CDE9002302F02A
:103FC0008DF9D4E90031A26801F01F010391101DA1
:103FD00002F1080602EB420105FA06F603EBC10105
:103FE00003F5005E03EB820C05FA00FBCEF800B08F
:103FF000CEF80060CCF810A0C1F8D890CCF81070C2
:1040000046F240074FF0A048039EC1F8D870C1F8AF
:10401000D86094F90C60B540B701C8F8645407EB58
:104020000805E9684901FCD44FF0010C07F1A041F3
:10403000022703F12F4505F560052D0D02EBC5059F
:104040000CFA02FC214A03EB800002EA463242EA03
:10405000454242F0807242F0190204AD0D604860A2
:104060008F60CA601A684CEA02021A600B695B0131
:10407000FCD40122A368216818339A408A608B68B7
:104080001A42FCD0012600272068A168036806FABE
:1040900001F523EA0503036018223346009702F076
:1040A00051F94AF20300A268236802EB420203EBD3
:1040B000C2031921C3F8D80046EC4010FFF7C0FA3C
:1040C000384607B0BDE8F08F00F8FF0FFDFF01FC98
:1040D0002DE9F04F04466E4DD4F84C4805EAC22550
:1040E00045EA0175216845F0404501F12F4101F590
:1040F0006001090D063187B0182045F00205C9B2EC
:10410000CDE90453FCF7CCF821681D2001F12F41C3
:1041100001F56001090D0631C9B2FCF7C1F80122B1
:1041200000211D20FCF7DAF80027192347EC403066
:1041300001254FF000462068A168D0F8009005FAEC
:1041400001F201EB410329EA0202D4F804E000EB9A
:10415000C30C0260DCF8CC200EEB05086FF3D01224
:1041600042EA08320CF5865342EACE12CCF8CC2053
:104170001E614FF080721E6100234FF03F0A46F22D
:104180002009CDE9002302F0A9F8D4E90031A268A2
:1041900001F01F010391101D02F1080602EB42011C
:1041A00005FA06F603EBC10103F5005E03EB820C92
:1041B00005FA00FBCEF800B0CEF80060CCF810A0F5
:1041C000C1F8D890CCF8107046F240074FF0A048E4
:1041D000039EC1F8D870C1F8D86094F90C60B5405E
:1041E000B701C8F8645407EB0805E9684901FCD435
:1041F0004FF0010C07F1A041022703F12F4505F50F
:1042000060052D0D02EBC5050CFA02FC214A03EBFB
:10421000800002EA463242EA454242F0807242F0B1
:10422000190204AD0D6048608F60CA601A684CEADC
:1042300002021A600B695B01FCD40122A3682168A9
:1042400018339A408A608B681A42FCD001260027F6
:104250002068A168036806FA01F523EA05030360F4
:1042600018223346009702F06DF84AF20300A26864
:10427000236802EB420203EBC2031921C3F8D80002
:1042800046EC4010FFF7DCF9384607B0BDE8F08F88
:1042900000F8FF0FFDFF01FC2DE9F04F04466E4DC5
:1042A000D4F84C4805EAC22545EA0175216845F075
:1042B000404501F12F4101F56001090D063187B03C
:1042C000182045F00105C9B2CDE90453FBF7E8FF1A
:1042D00021681D2001F12F4101F56001090D063112
:1042E000C9B2FBF7DDFF012200211D20FBF7F6FF1D
:1042F0000027192347EC403001254FF00046206885
:10430000A168D0F8009005FA01F201EB410329EA17
:104310000202D4F804E000EBC30C0260DCF8CC200D
:104320000EEB05086FF3D01242EA08320CF5865303
:1043300042EACE12CCF8CC201E614FF080721E6192
:1043400000234FF03F0A46F22009CDE9002301F097
:10435000C5FFD4E90031A26801F01F010391101DCF
:1043600002F1080602EB420105FA06F603EBC10171
:1043700003F5005E03EB820C05FA00FBCEF800B0FB
:10438000CEF80060CCF810A0C1F8D890CCF810702E
:1043900046F240074FF0A048039EC1F8D870C1F81C
:1043A000D86094F90C60B540B701C8F8645407EBC5
:1043B0000805E9684901FCD44FF0010C07F1A04160
:1043C000022703F12F4505F560052D0D02EBC5050C
:1043D0000CFA02FC214A03EB800002EA463242EA70
:1043E000454242F0807242F0190204AD0D6048600F
:1043F0008F60CA601A684CEA02021A600B695B019E
:10440000FCD40122A368216818339A408A608B6823
:104410001A42FCD0012600272068A168036806FA2A
:1044200001F523EA0503036018223346009701F0E3
:1044300089FF4AF20300A268236802EB420203EB01
:10444000C2031921C3F8D80046EC4010FFF7F8F872
:10445000384607B0BDE8F08F00F8FF0FFDFF01FC04
:10446000F0B50129054683B003F103001E460F464F
:10447000089C20F0030023D024234FF0040C16499D
:1044800005EB8C0C01EAC221314341EA077104308B
:1044900041F0804100900422CCF8141028460021FD
:1044A0002B44FFF7A9F9074678B905F12801A14285
:1044B00003D03246204602F0B3FD384603B0F0BDCB
:1044C00014234FF0000C1030D9E701460348FFF7E2
:1044D00047F8384603B0F0BD00F8FF0F5C730010DA
:1044E0002DE9F04F8BB0DE1C02AF02299A468B46B5
:1044F0000546D7F8489026F0030621D028484AEA16
:104500000B7B00EAC22040EA0B0040F0404405F17A
:104510002800484506F104063BD02B4643F8244FBB
:104520001C465246494602F07BFD00233246214696
:104530002846BB642437BD46BDE8F04FFFF75CB9A1
:104540004FF47A744FF008089346C7E90016013C0F
:1045500016D3144B0422BB600021284607F1080340
:10456000CDF800806E46FFF747F900B9F86883067A
:10457000B546ECD55A467E68D7F800B0002CBDD1C0
:104580000948FEF76BFF6FF005002437BD46BDE814
:10459000F08F294600233246284641F8244FC8E7C9
:1045A00000F8FF0F044000409075001038B5836894
:1045B00021F4FF4424F07F04A3420BD06340B3F105
:1045C000807F054607D213F47F0F0ED113F47F4F7F
:1045D00016D1AC6038BD230E01210D4AFFF75CFEF9
:1045E000AB68634013F47F0FF0D0230C0121284601
:1045F000084AFFF751FEAB68634013F47F4FE8D0E1
:1046000001212846044A230AFFF746FEE1E700BFDE
:104610000C0001000B0001000A000100C31CF0B5F2
:104620005FEA930EA1F1020018D0BEF1010F4FD046
:1046300023F00702DE080B4601EB020C1D685C68E4
:1046400043F8025CC3F8024008339C45F6D1BEEB48
:10465000460F03D084188B181B682360D1F8022002
:104660000B8814BAC1F80240D1F806405BBA0B803F
:1046700023BAC1F80630D1F80A30B2F18A4F1BBA1A
:10468000C1F80A3000D0F0BDB4F1006FFBD1B1F831
:10469000AE20D1F8B240D1F83E3015199D421AD85B
:1046A00001F13A0313441C44A3423BD200273E4687
:1046B00004E0DD2D14D013449C421FD95A780232F5
:1046C0009D18AC42F7D31D78302DF2D11E46F2E78B
:1046D0000B460446C0E74FF0FF33C1F80630F0BD8B
:1046E0009D78002DE7D1DD78502DE4D11D79F22D94
:1046F000E1D15D79012D08BF1F46DCE7331E18BFED
:1047000001239B000FB143F00203B1F84A20D20607
:1047100091F8822048BF43F0010381F88630A1F868
:104720008220F0BD0023F0E72DE9F8430F4605464F
:1047300001213B46194AFFF7AFFD3B4601212846C0
:10474000164AFFF7A9FD2FB34FF00309C8464024CE
:10475000124E0AE0012002F08BF83B46324601215E
:104760002846FFF799FD013C0ED03246012128462C
:10477000FFF7BAFA002800EA0803EBDB4B45E9D162
:10478000FF28E7D0BDE8F8833946BDE8F843044880
:10479000FEF7E6BEB9464FF00108D8E71F0001005A
:1047A000787300102DE9F043C37C05460F4616468A
:1047B00083B02BB9006801F01BFC012840F0958004
:1047C000284601F01BFCAB7C2BB901212846FFF7E2
:1047D000ABFF0123AB74E97C00296ED04FF47A74EF
:1047E00002E0013C00F08180082200212846FFF70A
:1047F00029FA421CF5D0C30540F1C580C0F34A2315
:104800005A1EB2F5C06F80F0B88010F0020240F07E
:10481000B48005F12804022128460094FFF720FE09
:1048200000283FD1298D6A8D51EA020300F0AB8048
:104830000123EB744FF6FF7381EA020C9C4540F0B4
:10484000A880D24392B2914240F0A0800B2940F25E
:10485000A78095F82D3095F8302003F00F03022B38
:10486000AA7322D895F831C06A7BACEB0202D2B2AF
:10487000142A98BF85F80DC00C291BD0012B37D006
:10488000022B66D01B2940F2978095F82F302D8A95
:1048900023445A89954240F08C8010331C1B0C1B1A
:1048A0003C60336003B0BDE8F0830C2918BF6FF0A3
:1048B0000A00F7D16FF00300F4E704222846FFF75F
:1048C000E9F9DFF80C911FFA80F8B9F800300446D6
:1048D000434502D010F0860F2DD1B8F1000F31D131
:1048E000A106A9F800803FF579AF4FF0FF30D9E776
:1048F000102964D995F82F202244D07802EB800249
:10490000107C0432141B8828A1EB04014BD1507B8E
:104910006C2848D1D07C00283FD1107D10283CD194
:10492000507D182839D1184618391832396032604C
:1049300003B0BDE8F08341462248FEF711FEB8F10E
:10494000000FCDD04346042200212846FFF7C0FBCC
:10495000C6E710292AD9184695F82F202244D37883
:1049600002EB8303043392781C1B0C1B44EAC272D3
:104970003A60336003B0BDE8F0830123284619464E
:10498000114AFFF789FC0023EB74AEE76FF00100DA
:1049900088E70E48FEF7E4FDA7E76FF0090081E71E
:1049A0006FF002007EE76FF008007BE76FF0060013
:1049B00078E76FF0050075E76FF0040072E76FF0BD
:1049C00007006FE79C7300100D000100C873001012
:1049D0001A1500202DE9F04F044685B099468B4604
:1049E000924601F00BFBA37C2BB901212046FFF777
:1049F0009BFE0123A374A37B13B32D4EDFF8B88075
:104A0000B76A0CE0A17BED1B19B9237B627B9A424C
:104A10001AD1454542D84FF47A7001F0F3FE204692
:104A200003AA02A9B56AFFF7BDFE0128EAD1DDE9B4
:104A30000201FFF7F3FD0146204601F0E5FAE1E748
:104A4000237B627B9A42D8D00AF10C0189B289F8A3
:104A5000043089F805B0CDF80090A9F80010C943DA
:104A6000BBF1020FA9F802104FF0000214BF0C2195
:104A70000E21581C0AF10F0389F8071089F8062047
:104A8000A9F80820A9F80A200221207323F00303C3
:104A90002046FFF725FD05B0BDE8F08F637B227B44
:104AA0000448FEF75DFD6FF0010005B0BDE8F08F32
:104AB00000000B40F473001040420F002DE9F04F4E
:104AC0002A4D8946AE6AAF6A9246A7EB060C284F7C
:104AD0009846BC4585B02ED80446DFF89CB00FE060
:104AE00002281FD0002803DB58461946FEF738FD80
:104AF0004FF47A7001F086FEAB6A9B1BBB421AD85A
:104B0000204603AA02A9FFF74DFE0346F8B101288B
:104B1000E6D1DDE90201FFF781FD0146204601F003
:104B200073FAE5E7DDE90213206821F00042C90FBE
:104B300001F0CCFEDCE74346524649460D48FEF7FD
:104B40000FFD6FF00103184605B0BDE8F08F029A23
:104B50000190424528BF42460E98039902F0E0F9C1
:104B6000019B184605B0BDE8F08F00BF00000B4068
:104B70003F420F0044740010187400102DE9F04FEC
:104B800000240746914683B0A1F1400AA3F1400BEF
:104B900015E013F47F0F32D113F47F4F3AD1BE608A
:104BA000C5F30E020BEB0405434601213846009580
:104BB00042F40042FFF794FC98BB4C4531D2A0462A
:104BC00040340AEB0405BB6825F4FF464C4526F04B
:104BD0007F0694BF4FF04008A9EB08089E42DFD043
:104BE0007340B3F1807FD4D30023012138460E4AAD
:104BF000FFF752FBBB68734013F47F0FCCD0330C2C
:104C000001213846094AFFF747FBBB68734013F49C
:104C10007F4FC4D001213846054A330AFFF73CFBD9
:104C2000BDE703B0BDE8F08F0C0001000B000100F0
:104C30000A0001002DE9F041044682B008460E4604
:104C4000904602F069FA0746314604F144057E1C9D
:104C50002846324602F0E4F907F12103B3F5006F6C
:104C600045F806801DD87E1D002107F1150240F28F
:104C70000717238A204601339BB223821B0443F08B
:104C80000203E363A66304F1280321646763FFF76B
:104C9000A1FE30B933463A46022120460095FFF77F
:104CA0000DFF02B0BDE8F0812DE9F047044608464B
:104CB0001D468946904602F02FFA04F14407294622
:104CC000451C42467819089E02F02AF92A464946B0
:104CD0003846454402F0A4F905F11C03B3F5006F12
:104CE00020D8238A360301339BB246EA034646F0B6
:104CF00002060021E66340F2071623822046A563E0
:104D000004F1280305F1100221646663FFF762FED7
:104D100040B92B463246204608970221BDE8F047AD
:104D2000FFF7CCBEBDE8F08770B5836821F4FF467D
:104D300026F07F069E4204460D460AD07340B3F12A
:104D4000807F23D213F47F0F2AD113F47F4F32D107
:104D5000A660C5F30E020121204642F40042FEF790
:104D6000C3FFA3680546B3F1C05F0DD083F0C05305
:104D7000B3F1807F39D213F47F0F2BD113F47F4F1F
:104D800020D14FF0C053A360284670BD330E0121DF
:104D90001B4AFFF781FAA368734013F47F0FD4D046
:104DA000330C01212046174AFFF776FAA3687340B7
:104DB00013F47F4FCCD001212046134A330AFFF76A
:104DC0006BFAC5E74FF4C013012120460E4AFFF7E6
:104DD00063FAD6E74FF4C05301212046094AFFF792
:104DE0005BFAA36883F0C053C8E71823012120466B
:104DF000034AFFF751FAA36883F0C053BBE700BF33
:104E00000C0001000B0001000A0001002DE9F8432D
:104E1000866821F4FF4727F07F07B74204460D4616
:104E2000904699460BD087EA060CBCF1807F3CD2B5
:104E30001CF47F0F2FD11CF47F4F25D1A760C5F341
:104E40000E02B8F1010F4B4642F4004217D0012187
:104E50002046FFF759F8A368B3F1C05F0DD083F087
:104E6000C053B3F1807F3CD213F47F0F2ED113F4E3
:104E70007F4F23D14FF0C053A360BDE8F883414674
:104E80002046FFF709FAE6E7012120461A4A3B0AC5
:104E9000FFF702FAD2E701212046184A3B0CFFF740
:104EA000FBF9A06887EA000CC5E73B0E0121144A14
:104EB000FFF7F2F9A36887EA030CB9E74FF4C013D0
:104EC000012120460C4AFFF7E7F9D3E74FF4C0531E
:104ED00001212046094AFFF7DFF9A36883F0C05398
:104EE000C5E7182301212046054AFFF7D5F9A36835
:104EF00083F0C053B8E700BF0A0001000B000100B7
:104F00000C000100C84B01292DE9F041C74F0ABF31
:104F10001F464FF448484FF4384804460D4639467A
:104F2000FFF744FB424601212046FEF7DDFEA36861
:104F3000B3F1C05F10D083F0C053B3F1807F80F035
:104F4000D38013F47F0F40F0DC8013F47F4F40F0E8
:104F5000E6804FF0C053A36039462046FFF726FB9A
:104F6000424601212046FEF7BFFEA3680646B3F184
:104F7000C05F10D083F0C053B3F1807F80F08A818E
:104F800013F47F0F40F07B8113F47F4F40F06F816B
:104F90004FF0C053A360F30740F18681A44B012D6D
:104FA000A44E08BF1E464BF208434CF2084508BF0A
:104FB0001D4631462046FFF7F9FA032301212A4610
:104FC0002046FFF769F9A368B3F1C05F10D083F002
:104FD000C053B3F1807F80F0408113F47F0F40F025
:104FE000318113F47F4F40F016814FF0C053A3601E
:104FF00031462046FFF7DAFA2A4601212046FEF71D
:1050000073FEA368B3F1C05F10D083F0C053B3F157
:10501000807F80F0F68013F47F0F40F0E78013F478
:105020007F4F40F0DB804FF0C053A36039462046ED
:10503000FFF7BCFA0023012142462046FFF72CF976
:10504000A368B3F1C05F10D083F0C053B3F1807F89
:1050500080F0BA8013F47F0F40F0AB8013F47F4FE1
:1050600040F09F804FF0C053A360012001F000FC8E
:1050700031462046FFF79AFA01232A461946204670
:10508000FFF70AF9A368B3F1C05F0DD083F0C053F6
:10509000B3F1807F7BD213F47F0F6DD113F47F4F78
:1050A00062D14FF0C053A36031462046FFF77EFA2D
:1050B0002A4601212046FEF717FEA368B3F1C05F20
:1050C0000DD083F0C053B3F1807F43D213F47F0F30
:1050D00035D113F47F4F2AD14FF0C053A360012084
:1050E000BDE8F04101F0C4BB182301212046524A1B
:1050F000FFF7D2F8A36883F0C05313F47F0F3FF497
:1051000024AF4FF4C053012120464C4AFFF7C4F8A6
:10511000A36883F0C05313F47F4F3FF41AAF4FF4EA
:10512000C01301212046464AFFF7B6F811E74FF4B5
:10513000C01301212046424AFFF7AEF8CCE74FF4F6
:10514000C053012120463D4AFFF7A6F8A36883F02B
:10515000C053BEE7182301212046374AFFF79CF8C9
:10516000A36883F0C053B1E74FF4C0130121204678
:10517000334AFFF791F894E74FF4C05301212046DA
:105180002E4AFFF789F8A36883F0C05386E71823F7
:1051900001212046284AFFF77FF8A36883F0C05317
:1051A00079E74FF4C01301212046254AFFF774F830
:1051B00058E74FF4C05301212046204AFFF76CF80E
:1051C000A36883F0C05349E71823012120461A4AF7
:1051D000FFF762F8A36883F0C0533BE74FF4C013B6
:1051E00001212046164AFFF757F81CE74FF4C05339
:1051F00001212046114AFFF74FF8A36883F0C053FE
:105200000DE71823012120460B4AFFF745F8A36854
:1052100083F0C053FFE64FF4C01301212046084A33
:10522000FFF73AF8E1E600BF003810180048101800
:1052300008341018084410180C0001000B0001007D
:105240000A0001004FF4C05301212046184AFFF71D
:1052500023F8A36883F0C053C3E618230121204636
:10526000144AFFF719F8A36883F0C053B5E64FF46A
:10527000C01301212046104AFFF70EF888E64FF4CC
:10528000C053012120460A4AFFF706F8A36883F0BD
:10529000C05379E6182301212046064AFEF7FCFF99
:1052A000A36883F0C0536BE60448FEF7D7F875E6B1
:1052B0000B0001000C0001000A0001006C740010DA
:1052C00000234FF4807201608360828183730361E5
:1052D000C0F84C38704700BFFEF7C4B910B504469B
:1052E00082B06946204601AAFFF75CFA012805D082
:1052F00002280CD00130F4D102B010BDDDE900016C
:10530000FFF78CF90146204600F07EFEE9E7DDE973
:105310000013206821F00042C90F01F0D7FAE0E73E
:105320002DE9F0471F4602F11C03B3F5006FDDF8CD
:1053300020C02DD804464FF0000916464D0845639D
:10534000008A4FEA410808F00208013080B248EABA
:105350000C3C4CEA0043E36393B239462082A363DA
:1053600004F14400C4F8409001F0DAFD49462046BB
:1053700004F1280306F11002FFF72CFB50B9334665
:105380002A46414620460897BDE8F047FFF796BBFE
:105390006FF00400BDE8F08710B5044641B1837C8E
:1053A00003B910BD0021BDE810408174FFF7BCB9FE
:1053B00000F024FEA37C002BF3D101212046FFF74F
:1053C000B3F90123A37410BD2DE9F04104464FF059
:1053D000000E4FF483761427038ADFF860C0013390
:1053E0009BB203821B04C0E90D67C0F840E0C363B1
:1053F0000D4600F14408BCE80F006064DCF80000D2
:1054000082B0A164E264236560657146242220466F
:1054100004F12803FFF7DEFA68B901463B4632463D
:105420002046CDF80080FFF749FB20B9636C2B6064
:10543000B4F84830AB8002B0BDE8F081BCEA03109C
:105440002DE9F047A94B86B09B6A044643600F469E
:10545000FEF73EF988B9FEF79FFB0A25FEF7BCFB75
:10546000A34E142200212046FEF7CEFBB0420DD001
:10547000012001F0FDF9013DF3D19E48FDF7EEFF5B
:105480006FF00505284606B0BDE8F08700222046EB
:105490001146994BFEF752FC05460028EDD1024615
:1054A00001462046FEF7CEFB294610231D2220464A
:1054B000FEF7F2FE01460028DFD1992304222046A0
:1054C000FEF7EAFE01460028D7D1BE230622204679
:1054D000FEF7FEFD0028D0D1082301212046874A8F
:1054E000FEF7DAFE0A25854E012132462046FEF7F8
:1054F000FBFB410608D4012001F0BAF9013DF3D1CC
:105500007F48FDF7ABFFBBE700237C4A0121204623
:10551000FEF7C2FE20467B49FFF748F84FF43842B9
:1055200001212046FEF7E0FBA368B3F1C05F10D075
:1055300083F0C053B3F1807F80F00A8313F47F0FB0
:1055400040F0FB8213F47F4F40F0EF824FF0C053E6
:10555000A36020466B49FFF729F84FF43842012138
:105560002046FEF7C1FBA3680546B3F1C05F10D02B
:1055700083F0C053B3F1807F80F0CD8213F47F0FAE
:1055800040F0BE8213F47F4F40F0B2824FF0C05320
:10559000A360EA0740F18F8320465B49FFF706F8D6
:1055A0004FF4484201212046FEF79EFBA368B3F169
:1055B000C05F10D083F0C053B3F1807F80F08E8243
:1055C00013F47F0F40F0EB8213F47F4F40F0DF8243
:1055D0004FF0C053A36020464B49FEF7E7FF4FF45E
:1055E000484201212046FEF77FFBA3680546B3F140
:1055F000C05F10D083F0C053B3F1807F80F0BD82D4
:1056000013F47F0F40F0AE8213F47F4F40F0D2824C
:105610004FF0C053A360EB0740F1518302212046B5
:10562000FFF770FCA368B3F1C05F10D083F0C053E4
:10563000B3F1807F80F0D28113F47F0F40F0C381FB
:1056400013F47F4F40F0F1814FF0C053A360032368
:105650004CF2100201212046FEF756FCA368B3F17C
:10566000C05F10D083F0C053B3F1807F80F0D3814E
:1056700013F47F0F40F0C48113F47F4F40F0B881E2
:105680004FF0C053A36000234CF244020121204696
:10569000FEF73AFCA368B3F1C05F10D083F0C053AB
:1056A000B3F1807F80F0088213F47F0F40F0C58152
:1056B00013F47F4F40F00A824FF0C053A360134BA6
:1056C000B3F8AC23B2F5FA7F80F2798193F8AB138B
:1056D000002940F07481502A40F3718103F25B3558
:1056E00003F2AB33DFF828809E1A16E000000B406F
:1056F000ADBEEDFEDC740010B30402000E0001002C
:10570000307500100038101800481018E8DF03103A
:10571000FC740010AE4200F0528128460922414636
:1057200001F0BEFB013D0028F4D10146C84B2046E4
:10573000C84AFFF723FA054600287FF4A3AE4FF4CA
:105740003A72C54BC5492046FFF718FAC44B0422EC
:105750002046C449FFF75AFB01212046FFF7D2FB40
:105760002046C149FFF7E0FA00F00303012B02D005
:10577000BE48FDF773FE2046BD49FFF7D5FAC607C0
:1057800000F120824FF47A76DFF8F48205E0012000
:1057900001F06EF8013E00F084824246012120466D
:1057A000FEF7A2FA0006F2D5F02304222046B14902
:1057B000FFF72CFB202301212046AF4AFEF76CFDAA
:1057C0004FF47A7605E0012001F052F8013E00F036
:1057D0006D82002108222046FEF734FA8106F2D5B8
:1057E0000121A64A2046FEF77FFAC3B20121A34A4F
:1057F00043F002032046FEF74FFD0823F02200216C
:105800002046FEF749FD022301219D4A2046FEF76E
:1058100043FD9C4A01212046FEF766FAC20740F18B
:10582000D9810F230121984A2046FEF735FD002338
:105830000121954A2046FEF72FFD0121924A20467C
:10584000FEF752FA042200212046FEF723FAC3078E
:1058500000F1C981A368B3F1C05F10D083F0C053D9
:10586000B3F1807F80F0138213F47F0F40F0048245
:1058700013F47F4F40F0F8814FF0C053A36048F21B
:10588000085201212046FEF7DDF9A368B3F1C05F9D
:1058900010D083F0C053B3F1807F80F0D38113F434
:1058A0007F0F40F0C48113F47F4F40F0D5814FF05B
:1058B000C053A360204600F0A1FBA37C2BB90121BB
:1058C0002046FEF731FF0123A3744FF0000A4FF486
:1058D000767240F207184FF47C796C496C4BC4E93E
:1058E000142AE16403CB6064A16404F1580069499F
:1058F00001F096FB238A514601339BB223821B049D
:1059000043F00203C4F840A004F1280AE3634FF413
:10591000806253462046C4E90D8904F14406FFF72E
:1059200059F830B94B464246022120460096FFF70F
:10593000C5F84FF0000E4FF483784FF01309DFF8ED
:1059400074C1BCE80F006064B260BCF800207160F4
:1059500032829CF80220F360B274228A71460132CE
:1059600092B222821204E263534623222046C4E903
:105970000D89C4F840E0FFF72DF8014628B94B46E1
:10598000424620460096FFF799F8636C002B40F0E2
:105990001D81002220464049FFF74CF90122204694
:1059A0003E49FFF747F9002F00F0248100263B46CF
:1059B000062220463A490096FFF776F962E5394813
:1059C000FDF74CFD5CE54FF4C05301212046364AFB
:1059D000FEF762FCA36883F0C05331E6182301216F
:1059E0002046324AFEF758FCA36883F0C05323E6F2
:1059F0004FF4C013012120462D4AFEF74DFC3FE62F
:105A00004FF4C05301212046274AFEF745FCA36806
:105A100083F0C05330E6182301212046234AFEF7C5
:105A20003BFCA36883F0C05322E64FF4C01301216E
:105A300020461F4AFEF730FC06E64FF4C053012112
:105A40002046194AFEF728FCA36883F0C0532FE6CE
:105A5000E8770010C06B0300C0E7031014FD0700D7
:105A6000BA0045FFFCFF0700083410185C750010F1
:105A70000038101824200018080001001E00010042
:105A80000E0001001F0001000F00010006100200BF
:105A9000D4EA0310E8E30310887400109474001033
:105AA000B8750010087500100B0001000C00010013
:105AB0000A000100E0EA0310182301212046824A6F
:105AC000FEF7EAFBA36883F0C053EDE54FF4C01383
:105AD000012120467D4AFEF7DFFBEDE51823012179
